:020000040000fa
:080000000002040000000000f2
:020000040000fa
:040008002c030000c5
:020000040000fa
:04000c002c030000c1
:020000040000fa
:040010002c030000bd
:020000040000fa
:040014002c030000b9
:020000040000fa
:040018002c030000b5
:020000040000fa
:04001c002c030000b1
:020000040000fa
:040020002c030000ad
:020000040000fa
:040024002c030000a9
:020000040000fa
:040028002c030000a5
:020000040000fa
:04002c002c030000a1
:020000040000fa
:040030002c0300009d
:020000040000fa
:040034002c03000099
:020000040000fa
:04003800c8020000fa
:020000040000fa
:04003c002c03000091
:020000040000fa
:040040002c0300008d
:020000040000fa
:040044002c03000089
:020000040000fa
:040048002c03000085
:020000040000fa
:04004c002c03000081
:020000040000fa
:040050002c0300007d
:020000040000fa
:040054002c03000079
:020000040000fa
:040058002c03000075
:020000040000fa
:04005c002c03000071
:020000040000fa
:040060002c0300006d
:020000040000fa
:040064002c03000069
:020000040000fa
:040068002c03000065
:020000040000fa
:04006c002c03000061
:020000040000fa
:040070002c0300005d
:020000040000fa
:040074002c03000059
:020000040000fa
:040078002c03000055
:020000040000fa
:04007c002c03000051
:020000040000fa
:040080002c0300004d
:020000040000fa
:040084002c03000049
:020000040000fa
:040088002c03000045
:020000040000fa
:04008c002c03000041
:020000040000fa
:040090002c0300003d
:020000040000fa
:040094002c03000039
:020000040000fa
:040098002c03000035
:020000040000fa
:04009c002c03000031
:020000040000fa
:0400a0002c0300002d
:020000040000fa
:0400a4002c03000029
:020000040000fa
:0400a8002c03000025
:020000040000fa
:0400ac002c03000021
:020000040000fa
:0400b0002c0300001d
:020000040000fa
:0400b4002c03000019
:020000040000fa
:0400b8002c03000015
:020000040000fa
:0400bc002c03000011
:020000040000fa
:0400c0002c0300000d
:020000040000fa
:0400c4002c03000009
:020000040000fa
:0400c8002c03000005
:020000040000fa
:0400cc002c03000001
:020000040000fa
:0400d0002c030000fd
:020000040000fa
:0400d4002c030000f9
:020000040000fa
:0400d8002c030000f5
:020000040000fa
:0400dc002c030000f1
:020000040000fa
:0400e0002c030000ed
:020000040000fa
:0400e4002c030000e9
:020000040000fa
:0400e8002c030000e5
:020000040000fa
:0400ec002c030000e1
:020000040000fa
:0400f0002c030000dd
:020000040000fa
:0400f4002c030000d9
:020000040000fa
:0400f8002c030000d5
:020000040000fa
:0400fc002c030000d1
:020000040000fa
:040100002c030000cc
:020000040000fa
:040104002c030000c8
:020000040000fa
:040108002c030000c4
:020000040000fa
:04010c002c030000c0
:020000040000fa
:040110002c030000bc
:020000040000fa
:040114002c030000b8
:020000040000fa
:040118002c030000b4
:020000040000fa
:04011c002c030000b0
:020000040000fa
:040120002c030000ac
:020000040000fa
:040124002c030000a8
:020000040000fa
:040128002c030000a4
:020000040000fa
:04012c002c030000a0
:020000040000fa
:040130002c0300009c
:020000040000fa
:040134002c03000098
:020000040000fa
:040138002c03000094
:020000040000fa
:04013c002c03000090
:020000040000fa
:040140002c0300008c
:020000040000fa
:040144002c03000088
:020000040000fa
:040148002c03000084
:020000040000fa
:04014c002c03000080
:020000040000fa
:040150002c0300007c
:020000040000fa
:040154002c03000078
:020000040000fa
:040158002c03000074
:020000040000fa
:04015c002c03000070
:020000040000fa
:04016000de020000bb
:020000040000fa
:040164002c03000068
:020000040000fa
:040208002c030000c3
:020000040000fa
:04020c002c030000bf
:020000040000fa
:040210002c030000bb
:020000040000fa
:040214002c030000b7
:020000040000fa
:040218002c030000b3
:020000040000fa
:04021c002c030000af
:020000040000fa
:040220002c030000ab
:020000040000fa
:040224002c030000a7
:020000040000fa
:040228002c030000a3
:020000040000fa
:04022c002c0300009f
:020000040000fa
:040230002c0300009b
:020000040000fa
:040234002c03000097
:020000040000fa
:040238002c03000093
:020000040000fa
:04023c002c0300008f
:020000040000fa
:040240002c0300008b
:020000040000fa
:040244002c03000087
:020000040000fa
:040248002c03000083
:020000040000fa
:04024c002c0300007f
:020000040000fa
:040250002c0300007b
:020000040000fa
:040254002c03000077
:020000040000fa
:040258002c03000073
:020000040000fa
:04025c002c0300006f
:020000040000fa
:040260002c0300006b
:020000040000fa
:040264002c03000067
:020000040000fa
:040268002c03000063
:020000040000fa
:04026c002c0300005f
:020000040000fa
:040270002c0300005b
:020000040000fa
:040274002c03000057
:020000040000fa
:040278002c03000053
:020000040000fa
:04027c002c0300004f
:020000040000fa
:040280002c0300004b
:020000040000fa
:040284002c03000047
:020000040000fa
:040288002c03000043
:020000040000fa
:04028c002c0300003f
:020000040000fa
:040290002c0300003b
:020000040000fa
:040294002c03000037
:020000040000fa
:040298002c03000033
:020000040000fa
:04029c002c0300002f
:020000040000fa
:0402a0002c0300002b
:020000040000fa
:0402a4002c03000027
:020000040000fa
:0402a8002c03000023
:020000040000fa
:0402ac002c0300001f
:020000040000fa
:0402b0002c0300001b
:020000040000fa
:0402b4002c03000017
:020000040000fa
:0402b8002c03000013
:020000040000fa
:0402bc002c0300000f
:020000040000fa
:0402c0002c0300000b
:020000040000fa
:0402c4002c03000007
:020000040000fa
:0402c8002c03000003
:020000040000fa
:0402cc002c030000ff
:020000040000fa
:0402d0002c030000fb
:020000040000fa
:0402d4002c030000f7
:020000040000fa
:0402d8002c030000f3
:020000040000fa
:0402dc002c030000ef
:020000040000fa
:0402e0002c030000eb
:020000040000fa
:0402e4002c030000e7
:020000040000fa
:0402e8002c030000e3
:020000040000fa
:0402ec002c030000df
:020000040000fa
:0402f0002c030000db
:020000040000fa
:0402f4002c030000d7
:020000040000fa
:0402f8002c030000d3
:020000040000fa
:0402fc002c030000cf
:020000040000fa
:040300002c030000ca
:020000040000fa
:040304002c030000c6
:020000040000fa
:040308002c030000c2
:020000040000fa
:04030c002c030000be
:020000040000fa
:040310002c030000ba
:020000040000fa
:040314002c030000b6
:020000040000fa
:040318002c030000b2
:020000040000fa
:04031c002c030000ae
:020000040000fa
:040320002c030000aa
:020000040000fa
:040324002c030000a6
:020000040000fa
:040328002c030000a2
:020000040000fa
:04032c002c0300009e
:020000040000fa
:040330002c0300009a
:020000040000fa
:040334002c03000096
:020000040000fa
:040338002c03000092
:020000040000fa
:04033c002c0300008e
:020000040000fa
:040340002c0300008a
:020000040000fa
:040344002c03000086
:020000040000fa
:040348002c03000082
:020000040000fa
:04034c002c0300007e
:020000040000fa
:040350002c0300007a
:020000040000fa
:040354002c03000076
:020000040000fa
:040358002c03000072
:020000040000fa
:04035c002c0300006e
:020000040000fa
:040360002c0300006a
:020000040000fa
:040364002c03000066
:020000040000fa
:10040000cf8020000e3f24000e0188000000000075
:10041000000020000000e000020032000001200087
:1004200020028800140007008d0007000000e00093
:1004300003003a00204c2000010020000200370099
:100440000000200001002000810f70000100320038
:1004500014000700000020000000e000020032004d
:100460000000020000000000ae04020000000000d6
:100470000040da000000fe004440a900c000200057
:100480000000e0000300320000002000a00188000e
:100490004440a800000006008a1f78008b1f7800e7
:1004a0000000060091018800800478000000eb0045
:1004b0001a003700e284440032a0b4009905ba0063
:1004c000e284440032a0b4009906ba00e2844400f9
:1004d00032a0b4000006eb00476fde00fd07b2005b
:1004e000636ce10003003a00ebff07000000eb0043
:1004f0000a003700606ce10004003a00005deb0088
:100500008b05e900fdff3e00040037006168e10053
:10051000010032000086eb000b00070019c7ba008b
:100520001905ba000e04e00003003a000a00e000da
:10053000e0ff3a0000000600fe07b2009e018800be
:100540008a047800f5ff3700395dba008b05e900b1
:100550000c003200295dba008b05e900080032006a
:100560000c00e00003003a00e284440032a0b40032
:10057000f5ff370019ddba008b05e900faff3a00f4
:100580008904e800e184440032a0b40000000600c1
:10059000801f78000000fa00004080000000a200e8
:1005a000004088000228ef000428ef008480a900a2
:1005b0000080fa004f00780000400600809fbe00d7
:1005c000821f78000000fa00004080008000400098
:1005d0008080200000804000900078001040800063
:1005e000000040000080400010007800b01f88002c
:1005f000104080000000e80010408800114080009a
:10060000f00f2000808f500002003400f00f200017
:1006100010408800214080003240800010c0b300ac
:10062000828f500001003c000040eb008100e80098
:10063000214088000004e0000200320020408000d9
:10064000304088008dc0a9000080fa004f0178007a
:100650004f00be00004006000040da000000fe002f
:100660000000050080007800010178003104e000fe
:0c067000fdff3a000000510000000600f1
:020000040000fa
:10067c005374000061720000746900006e67000022
:08068c002e2e00002e000000dc
:020000040000fa
:100694000000fa0001198000003020000100700001
:1006a4000019880001198000f0f12f00008060001b
:1006b4000060a000001988002043a8002143a8007e
:1006c40011198000f0cf2f000080600010198800fd
:1006d40025e3a90030c0b30024e3b7002183a800b8
:1006e4001119800030fc2f00008060001019880070
:1006f4004119800000fe2f0000806000401988002e
:1007040028e3a9000080eb00601988002c03a900ed
:1007140085a0a90095a0a90021e3a8000080fa0003
:10072400000006000000fa004ba7a900513a80001f
:10073400f07f2e0000806000503a88004ae7a9004c
:10074400513a80000070200001007000503a880087
:10075400f2e3a80000002800a01f8800811f800089
:1007640000f82f0000806000b000b300801f8800f4
:10077400f103a800f183a900f243a8008dc0a900e9
:100784009dc0a800f1e3a8000080fa000000060064
:100794000000fa000a21ef00f02f20007008880002
:1007a4008500a9009500a90013e1a8000080fa00c3
:1007b400000006000000fa00011c8000f0fc2f007d
:1007c40000806000001c8800011c8000c0ff2f0016
:1007d400008060000010a000001c88000030200091
:1007e400401c8800f00f2000501c8800d00020001e
:1007f400101c880000602000201c8800004020009d
:10080400301c88008480a9009480a80081e3a8009b
:100814000080fa00000006000000fa00c8e2a90007
:1008240031368000f00f2e00808060000030200000
:100834000100700030368800c8c2a800213580004d
:1008440000fe2f00008060006000b30020358800a7
:100854002022ef00f00e2000401188002222ef0039
:1008640021e2a8002342a8000080fa00000006004c
:100874000200fa00004f780000000000111180000f
:1008840000202000008060000000e000fbff3a0030
:100894001e80fb00201188000080fa000000060082
:1008a4000400fa00881f7800100798000000eb008d
:1008b400000f7800060037001e0078009e009000ac
:1008c4000080400010407800e9ff07001e0fe80098
:1008d4001e0478001e00900061ff0700800f540082
:1008e400f5ff3900a0c0b300e1ff07004f04780012
:1008f4000080fa00000006000000fa00213a80009f
:1009040000fe2f0000806000203a8800313a800009
:1009140000e02f0080806000600220000100700071
:10092400303a8800213a8000f0f32f000080600004
:10093400203a880000000000113a800000022000e4
:10094400008060000000e000fbff320040a7a90027
:100954000080fa00000006005200fa00e6ff0700db
:100964004bff07006fff070092ff070088ff070097
:10097400a9ff0700e0332800c9ff0700ffff370085
:020000040000fa
:100984000808000004000000020000000046000007
:1009940044000000004600000002000000000000c7
:1009a40000440000000200000000000000080000f5
:0c09b4000800000000000000000000002f
:020000040000fa
:0200000401f009
:04000c00810000006f
:00000001FF
